{"abi":[{"type":"constructor","inputs":[{"name":"_implementation","type":"address","internalType":"address"}],"stateMutability":"nonpayable"},{"type":"fallback","stateMutability":"payable"},{"type":"function","name":"implementation","inputs":[],"outputs":[{"name":"","type":"address","internalType":"address"}],"stateMutability":"view"},{"type":"function","name":"upgradeImplementation","inputs":[{"name":"newImplementation","type":"address","internalType":"address"}],"outputs":[],"stateMutability":"nonpayable"}],"bytecode":{"object":"0x6080604052348015600f57600080fd5b50604051610219380380610219833981016040819052602c916050565b600080546001600160a01b0319166001600160a01b0392909216919091179055607e565b600060208284031215606157600080fd5b81516001600160a01b0381168114607757600080fd5b9392505050565b61018c8061008d6000396000f3fe6080604052600436106100295760003560e01c80635c60da1b146100ad57806383f94db7146100e9575b6000546001600160a01b0316806100865760405162461bcd60e51b815260206004820152601f60248201527f496d706c656d656e746174696f6e20636f6e7472616374206e6f742073657400604482015260640160405180910390fd5b60405136600082376000803683855af43d806000843e8180156100a7578184f35b8184fd5b005b3480156100b957600080fd5b506000546100cd906001600160a01b031681565b6040516001600160a01b03909116815260200160405180910390f35b3480156100f557600080fd5b506100ab610104366004610126565b600080546001600160a01b0319166001600160a01b0392909216919091179055565b60006020828403121561013857600080fd5b81356001600160a01b038116811461014f57600080fd5b939250505056fea2646970667358221220afcd71bc02f53f25e4f80411e3fb7e1c3791ec34d53ef01c4e36298f1e750a8464736f6c63430008190033","linkReferences":{}},"methodIdentifiers":{"implementation()":"5c60da1b","upgradeImplementation(address)":"83f94db7"},"id":31}