{"abi":[{"type":"constructor","inputs":[{"name":"_platformToken","type":"address","internalType":"contract IERC20"},{"name":"_platformAddress","type":"address","internalType":"address"},{"name":"_platformFee","type":"uint256","internalType":"uint256"}],"stateMutability":"nonpayable"},{"type":"function","name":"ONE_MONTH","inputs":[],"outputs":[{"name":"","type":"uint256","internalType":"uint256"}],"stateMutability":"view"},{"type":"function","name":"cancelSubscription","inputs":[],"outputs":[],"stateMutability":"nonpayable"},{"type":"function","name":"checkSubscriptionStatus","inputs":[{"name":"user","type":"address","internalType":"address"}],"outputs":[{"name":"","type":"bool","internalType":"bool"}],"stateMutability":"view"},{"type":"function","name":"platformAddress","inputs":[],"outputs":[{"name":"","type":"address","internalType":"address"}],"stateMutability":"view"},{"type":"function","name":"platformFee","inputs":[],"outputs":[{"name":"","type":"uint256","internalType":"uint256"}],"stateMutability":"view"},{"type":"function","name":"platformToken","inputs":[],"outputs":[{"name":"","type":"address","internalType":"contract IERC20"}],"stateMutability":"view"},{"type":"function","name":"renewSubscription","inputs":[],"outputs":[],"stateMutability":"nonpayable"},{"type":"function","name":"setPlatformFee","inputs":[{"name":"newFee","type":"uint256","internalType":"uint256"}],"outputs":[],"stateMutability":"nonpayable"},{"type":"function","name":"setTierPrice","inputs":[{"name":"_tier","type":"uint8","internalType":"enum SubscriptionLogic.Tier"},{"name":"newPrice","type":"uint256","internalType":"uint256"}],"outputs":[],"stateMutability":"nonpayable"},{"type":"function","name":"subscribe","inputs":[{"name":"_tier","type":"uint8","internalType":"enum SubscriptionLogic.Tier"}],"outputs":[],"stateMutability":"nonpayable"},{"type":"function","name":"subscriptions","inputs":[{"name":"","type":"address","internalType":"address"}],"outputs":[{"name":"tier","type":"uint8","internalType":"enum SubscriptionLogic.Tier"},{"name":"nextPaymentDue","type":"uint256","internalType":"uint256"},{"name":"lastPaymentAmount","type":"uint256","internalType":"uint256"},{"name":"isActive","type":"bool","internalType":"bool"}],"stateMutability":"view"},{"type":"function","name":"tierPrices","inputs":[{"name":"","type":"uint8","internalType":"enum SubscriptionLogic.Tier"}],"outputs":[{"name":"","type":"uint256","internalType":"uint256"}],"stateMutability":"view"},{"type":"event","name":"Renewed","inputs":[{"name":"user","type":"address","indexed":true,"internalType":"address"},{"name":"tier","type":"uint8","indexed":false,"internalType":"enum SubscriptionLogic.Tier"},{"name":"amount","type":"uint256","indexed":false,"internalType":"uint256"}],"anonymous":false},{"type":"event","name":"Subscribed","inputs":[{"name":"user","type":"address","indexed":true,"internalType":"address"},{"name":"tier","type":"uint8","indexed":false,"internalType":"enum SubscriptionLogic.Tier"},{"name":"amount","type":"uint256","indexed":false,"internalType":"uint256"}],"anonymous":false},{"type":"event","name":"SubscriptionExpired","inputs":[{"name":"user","type":"address","indexed":true,"internalType":"address"}],"anonymous":false}],"bytecode":{"object":"0x608060405234801561001057600080fd5b50604051610d39380380610d3983398101604081905261002f9161010a565b600080546001600160a01b039485166001600160a01b031991821617825560018054949095169316929092179092556002919091556004602052662386f26fc100007fabd6e7cb50984ff9c2f3e18a2660c3353dadf4e3291deeb275dae2cd1e44fe055567016345785d8a00007f91da3fd0782e51c6b3986e9e672fd566868e71f3dbc2d6c2cd6fbb3e361af2a755600390526703782dace9d900007f2e174c10e159ea99b867ce3205125c24a42d128804e4070ed6fcc8cc98166aa05561014d565b6001600160a01b038116811461010757600080fd5b50565b60008060006060848603121561011f57600080fd5b835161012a816100f2565b602085015190935061013b816100f2565b80925050604084015190509250925092565b610bdd8061015c6000396000f3fe608060405234801561001057600080fd5b50600436106100b45760003560e01c80634a5c6f8c116100715780634a5c6f8c146101325780636e30798114610145578063b4fad6f81461014d578063d1b812cd1461016d578063dbe55e5614610198578063f046395a146101ab57600080fd5b806312e8e2c3146100b957806320988cef146100ce57806324e9edb0146100eb57806326232a2e146100f35780632781b0eb146100fc57806349c7e6391461011f575b600080fd5b6100cc6100c73660046109ad565b600255565b005b6100d862278d0081565b6040519081526020015b60405180910390f35b6100cc6101f7565b6100d860025481565b61010f61010a3660046109c6565b61029e565b60405190151581526020016100e2565b6100cc61012d366004610a0a565b61033f565b6100cc610140366004610a25565b610689565b6100cc6106c6565b6100d861015b366004610a0a565b60046020526000908152604090205481565b600054610180906001600160a01b031681565b6040516001600160a01b0390911681526020016100e2565b600154610180906001600160a01b031681565b6101e76101b93660046109c6565b6003602081905260009182526040909120805460018201546002830154929093015460ff9182169392911684565b6040516100e29493929190610a87565b336000818152600360208190526040909120015460ff166102595760405162461bcd60e51b8152602060048201526017602482015276537562736372697074696f6e206e6f742061637469766560481b60448201526064015b60405180910390fd5b336000818152600360208190526040808320909101805460ff19169055517fce494df26201e4ab47fcf20b8e9c68090020433b94bca8e2768f3a6a2099f7539190a250565b6001600160a01b038116600090815260036020819052604080832081516080810190925280548493839160ff16908111156102db576102db610a4f565b60038111156102ec576102ec610a4f565b8152600182015460208201526002820154604082015260039091015460ff16151560609182015281015190915015806103285750806020015142115b156103365750600092915050565b50600192915050565b600081600381111561035357610353610a4f565b0361038f5760405162461bcd60e51b815260206004820152600c60248201526b24b73b30b634b2103a34b2b960a11b6044820152606401610250565b6000600460008360038111156103a7576103a7610a4f565b60038111156103b8576103b8610a4f565b815260208101919091526040908101600090812054905491516370a0823160e01b815233600482015290925082916001600160a01b0316906370a0823190602401602060405180830381865afa158015610416573d6000803e3d6000fd5b505050506040513d601f19601f8201168201806040525081019061043a9190610ab2565b101561047f5760405162461bcd60e51b8152602060048201526014602482015273496e73756666696369656e742062616c616e636560601b6044820152606401610250565b6000612710600254836104929190610ae1565b61049c9190610afe565b905060006104aa8284610b20565b6000546001546040516323b872dd60e01b81529293506001600160a01b03918216926323b872dd926104e59233929116908790600401610b33565b6020604051808303816000875af1158015610504573d6000803e3d6000fd5b505050506040513d601f19601f820116820180604052508101906105289190610b57565b506000546040516323b872dd60e01b81526001600160a01b03909116906323b872dd9061055d90339030908690600401610b33565b6020604051808303816000875af115801561057c573d6000803e3d6000fd5b505050506040513d601f19601f820116820180604052508101906105a09190610b57565b5060405180608001604052808560038111156105be576105be610a4f565b81526020016105d062278d0042610b79565b8152602080820186905260016040928301819052336000908152600392839052929092208351815491939092849260ff19169190849081111561061557610615610a4f565b02179055506020820151600182015560408083015160028301556060909201516003909101805460ff19169115159190911790555133907f044f95a2d17727b5b87e4f23d70278b59a2b0b285289cc9021cac8cdba4797b79061067b9087908790610b8c565b60405180910390a250505050565b80600460008460038111156106a0576106a0610a4f565b60038111156106b1576106b1610a4f565b81526020810191909152604001600020555050565b336000818152600360208190526040909120015460ff166107235760405162461bcd60e51b8152602060048201526017602482015276537562736372697074696f6e206e6f742061637469766560481b6044820152606401610250565b336000908152600360205260409020600181015442101561077c5760405162461bcd60e51b815260206004820152601360248201527214185e5b595b9d081b9bdd08191d59481e595d606a1b6044820152606401610250565b60028101546000546040516370a0823160e01b815233600482015282916001600160a01b0316906370a0823190602401602060405180830381865afa1580156107c9573d6000803e3d6000fd5b505050506040513d601f19601f820116820180604052508101906107ed9190610ab2565b10156108325760405162461bcd60e51b8152602060048201526014602482015273496e73756666696369656e742062616c616e636560601b6044820152606401610250565b6000612710600254836108459190610ae1565b61084f9190610afe565b9050600061085d8284610b20565b6000546001546040516323b872dd60e01b81529293506001600160a01b03918216926323b872dd926108989233929116908790600401610b33565b6020604051808303816000875af11580156108b7573d6000803e3d6000fd5b505050506040513d601f19601f820116820180604052508101906108db9190610b57565b506000546040516323b872dd60e01b81526001600160a01b03909116906323b872dd9061091090339030908690600401610b33565b6020604051808303816000875af115801561092f573d6000803e3d6000fd5b505050506040513d601f19601f820116820180604052508101906109539190610b57565b5061096162278d0042610b79565b6001850155835460405133917f0db0cdee0835894cd85c3775c88c5f58768a508801b3344e5b16b2e95ebf08239161099e9160ff16908790610b8c565b60405180910390a25050505050565b6000602082840312156109bf57600080fd5b5035919050565b6000602082840312156109d857600080fd5b81356001600160a01b03811681146109ef57600080fd5b9392505050565b803560048110610a0557600080fd5b919050565b600060208284031215610a1c57600080fd5b6109ef826109f6565b60008060408385031215610a3857600080fd5b610a41836109f6565b946020939093013593505050565b634e487b7160e01b600052602160045260246000fd5b60048110610a8357634e487b7160e01b600052602160045260246000fd5b9052565b60808101610a958287610a65565b846020830152836040830152821515606083015295945050505050565b600060208284031215610ac457600080fd5b5051919050565b634e487b7160e01b600052601160045260246000fd5b8082028115828204841417610af857610af8610acb565b92915050565b600082610b1b57634e487b7160e01b600052601260045260246000fd5b500490565b81810381811115610af857610af8610acb565b6001600160a01b039384168152919092166020820152604081019190915260600190565b600060208284031215610b6957600080fd5b815180151581146109ef57600080fd5b80820180821115610af857610af8610acb565b60408101610b9a8285610a65565b826020830152939250505056fea2646970667358221220a13ca73f2e6fd50bfd3189843758cc7b2350ea8a80b8554a6fc8c769b2c5b3a264736f6c63430008190033","linkReferences":{}},"methodIdentifiers":{"ONE_MONTH()":"20988cef","cancelSubscription()":"24e9edb0","checkSubscriptionStatus(address)":"2781b0eb","platformAddress()":"dbe55e56","platformFee()":"26232a2e","platformToken()":"d1b812cd","renewSubscription()":"6e307981","setPlatformFee(uint256)":"12e8e2c3","setTierPrice(uint8,uint256)":"4a5c6f8c","subscribe(uint8)":"49c7e639","subscriptions(address)":"f046395a","tierPrices(uint8)":"b4fad6f8"},"id":33}