{"abi":[{"type":"constructor","inputs":[{"name":"_platformAddress","type":"address","internalType":"address"},{"name":"_creatorAddress","type":"address","internalType":"address"}],"stateMutability":"nonpayable"},{"type":"function","name":"addRewards","inputs":[],"outputs":[],"stateMutability":"nonpayable"},{"type":"function","name":"allowance","inputs":[{"name":"owner","type":"address","internalType":"address"},{"name":"spender","type":"address","internalType":"address"}],"outputs":[{"name":"","type":"uint256","internalType":"uint256"}],"stateMutability":"view"},{"type":"function","name":"approve","inputs":[{"name":"spender","type":"address","internalType":"address"},{"name":"value","type":"uint256","internalType":"uint256"}],"outputs":[{"name":"","type":"bool","internalType":"bool"}],"stateMutability":"nonpayable"},{"type":"function","name":"balanceOf","inputs":[{"name":"account","type":"address","internalType":"address"}],"outputs":[{"name":"","type":"uint256","internalType":"uint256"}],"stateMutability":"view"},{"type":"function","name":"burnPoints","inputs":[{"name":"user","type":"address","internalType":"address"},{"name":"amount","type":"uint256","internalType":"uint256"}],"outputs":[],"stateMutability":"nonpayable"},{"type":"function","name":"creatorAddress","inputs":[],"outputs":[{"name":"","type":"address","internalType":"address"}],"stateMutability":"view"},{"type":"function","name":"decimals","inputs":[],"outputs":[{"name":"","type":"uint8","internalType":"uint8"}],"stateMutability":"view"},{"type":"function","name":"name","inputs":[],"outputs":[{"name":"","type":"string","internalType":"string"}],"stateMutability":"view"},{"type":"function","name":"platformAddress","inputs":[],"outputs":[{"name":"","type":"address","internalType":"address"}],"stateMutability":"view"},{"type":"function","name":"rewardUser","inputs":[{"name":"user","type":"address","internalType":"address"},{"name":"amount","type":"uint256","internalType":"uint256"}],"outputs":[],"stateMutability":"nonpayable"},{"type":"function","name":"rewards","inputs":[{"name":"","type":"uint256","internalType":"uint256"}],"outputs":[{"name":"rewardContract","type":"address","internalType":"address"},{"name":"name","type":"string","internalType":"string"},{"name":"pointsCost","type":"uint256","internalType":"uint256"},{"name":"maxSupply","type":"uint256","internalType":"uint256"}],"stateMutability":"view"},{"type":"function","name":"symbol","inputs":[],"outputs":[{"name":"","type":"string","internalType":"string"}],"stateMutability":"view"},{"type":"function","name":"totalSupply","inputs":[],"outputs":[{"name":"","type":"uint256","internalType":"uint256"}],"stateMutability":"view"},{"type":"function","name":"transfer","inputs":[{"name":"to","type":"address","internalType":"address"},{"name":"value","type":"uint256","internalType":"uint256"}],"outputs":[{"name":"","type":"bool","internalType":"bool"}],"stateMutability":"nonpayable"},{"type":"function","name":"transferFrom","inputs":[{"name":"from","type":"address","internalType":"address"},{"name":"to","type":"address","internalType":"address"},{"name":"value","type":"uint256","internalType":"uint256"}],"outputs":[{"name":"","type":"bool","internalType":"bool"}],"stateMutability":"nonpayable"},{"type":"event","name":"Approval","inputs":[{"name":"owner","type":"address","indexed":true,"internalType":"address"},{"name":"spender","type":"address","indexed":true,"internalType":"address"},{"name":"value","type":"uint256","indexed":false,"internalType":"uint256"}],"anonymous":false},{"type":"event","name":"Transfer","inputs":[{"name":"from","type":"address","indexed":true,"internalType":"address"},{"name":"to","type":"address","indexed":true,"internalType":"address"},{"name":"value","type":"uint256","indexed":false,"internalType":"uint256"}],"anonymous":false},{"type":"error","name":"ERC20InsufficientAllowance","inputs":[{"name":"spender","type":"address","internalType":"address"},{"name":"allowance","type":"uint256","internalType":"uint256"},{"name":"needed","type":"uint256","internalType":"uint256"}]},{"type":"error","name":"ERC20InsufficientBalance","inputs":[{"name":"sender","type":"address","internalType":"address"},{"name":"balance","type":"uint256","internalType":"uint256"},{"name":"needed","type":"uint256","internalType":"uint256"}]},{"type":"error","name":"ERC20InvalidApprover","inputs":[{"name":"approver","type":"address","internalType":"address"}]},{"type":"error","name":"ERC20InvalidReceiver","inputs":[{"name":"receiver","type":"address","internalType":"address"}]},{"type":"error","name":"ERC20InvalidSender","inputs":[{"name":"sender","type":"address","internalType":"address"}]},{"type":"error","name":"ERC20InvalidSpender","inputs":[{"name":"spender","type":"address","internalType":"address"}]}],"bytecode":{"object":"0x608060405234801561001057600080fd5b50604051610d4c380380610d4c83398101604081905261002f916100e1565b6040518060400160405280600d81526020016c43726561746f72506f696e747360981b8152506040518060400160405280600381526020016210d41560ea1b815250816003908161008091906101b5565b50600461008d82826101b5565b5050600580546001600160a01b039485166001600160a01b031991821617909155600680549390941692169190911790915550610274565b80516001600160a01b03811681146100dc57600080fd5b919050565b600080604083850312156100f457600080fd5b6100fd836100c5565b915061010b602084016100c5565b90509250929050565b634e487b7160e01b600052604160045260246000fd5b600181811c9082168061013e57607f821691505b60208210810361015e57634e487b7160e01b600052602260045260246000fd5b50919050565b601f8211156101b0576000816000526020600020601f850160051c8101602086101561018d5750805b601f850160051c820191505b818110156101ac57828155600101610199565b5050505b505050565b81516001600160401b038111156101ce576101ce610114565b6101e2816101dc845461012a565b84610164565b602080601f83116001811461021757600084156101ff5750858301515b600019600386901b1c1916600185901b1785556101ac565b600085815260208120601f198616915b8281101561024657888601518255948401946001909101908401610227565b50858210156102645787850151600019600388901b60f8161c191681555b5050505050600190811b01905550565b610ac9806102836000396000f3fe608060405234801561001057600080fd5b50600436106100f55760003560e01c806370a0823111610097578063dd62ed3e11610066578063dd62ed3e146101fb578063e4e103dc14610234578063e927fc5c14610247578063f301af421461025a57600080fd5b806370a082311461018c57806395d89b41146101b5578063a9059cbb146101bd578063dbe55e56146101d057600080fd5b806318160ddd116100d357806318160ddd1461014557806323b872dd14610157578063313ce5671461016a57806366c4bbba1461017957600080fd5b806306fdde03146100fa578063095ea7b31461011857806314d6aed01461013b575b600080fd5b61010261027d565b60405161010f91906108fe565b60405180910390f35b61012b610126366004610934565b61030f565b604051901515815260200161010f565b610143610329565b005b6002545b60405190815260200161010f565b61012b61016536600461095e565b61038a565b6040516012815260200161010f565b610143610187366004610934565b6103ae565b61014961019a36600461099a565b6001600160a01b031660009081526020819052604090205490565b61010261041c565b61012b6101cb366004610934565b61042b565b6005546101e3906001600160a01b031681565b6040516001600160a01b03909116815260200161010f565b6101496102093660046109b5565b6001600160a01b03918216600090815260016020908152604080832093909416825291909152205490565b610143610242366004610934565b610439565b6006546101e3906001600160a01b031681565b61026d6102683660046109e8565b6104a3565b60405161010f9493929190610a01565b60606003805461028c90610a38565b80601f01602080910402602001604051908101604052809291908181526020018280546102b890610a38565b80156103055780601f106102da57610100808354040283529160200191610305565b820191906000526020600020905b8154815290600101906020018083116102e857829003601f168201915b5050505050905090565b60003361031d81858561055e565b60019150505b92915050565b6006546001600160a01b031633146103885760405162461bcd60e51b815260206004820152601c60248201527f4f6e6c792063726561746f722063616e2061646420726577617264730000000060448201526064015b60405180910390fd5b565b600033610398858285610570565b6103a38585856105ee565b506001949350505050565b6005546001600160a01b03163314806103d157506006546001600160a01b031633145b61040e5760405162461bcd60e51b815260206004820152600e60248201526d139bdd08185d5d1a1bdc9a5e995960921b604482015260640161037f565b610418828261064d565b5050565b60606004805461028c90610a38565b60003361031d8185856105ee565b6005546001600160a01b031633148061045c57506006546001600160a01b031633145b6104995760405162461bcd60e51b815260206004820152600e60248201526d139bdd08185d5d1a1bdc9a5e995960921b604482015260640161037f565b6104188282610683565b600760205260009081526040902080546001820180546001600160a01b0390921692916104cf90610a38565b80601f01602080910402602001604051908101604052809291908181526020018280546104fb90610a38565b80156105485780601f1061051d57610100808354040283529160200191610548565b820191906000526020600020905b81548152906001019060200180831161052b57829003601f168201915b5050505050908060020154908060030154905084565b61056b83838360016106b9565b505050565b6001600160a01b0383811660009081526001602090815260408083209386168352929052205460001981146105e857818110156105d957604051637dc7a0d960e11b81526001600160a01b0384166004820152602481018290526044810183905260640161037f565b6105e8848484840360006106b9565b50505050565b6001600160a01b03831661061857604051634b637e8f60e11b81526000600482015260240161037f565b6001600160a01b0382166106425760405163ec442f0560e01b81526000600482015260240161037f565b61056b83838361078e565b6001600160a01b03821661067757604051634b637e8f60e11b81526000600482015260240161037f565b6104188260008361078e565b6001600160a01b0382166106ad5760405163ec442f0560e01b81526000600482015260240161037f565b6104186000838361078e565b6001600160a01b0384166106e35760405163e602df0560e01b81526000600482015260240161037f565b6001600160a01b03831661070d57604051634a1406b160e11b81526000600482015260240161037f565b6001600160a01b03808516600090815260016020908152604080832093871683529290522082905580156105e857826001600160a01b0316846001600160a01b03167f8c5be1e5ebec7d5bd14f71427d1e84f3dd0314c0f7b2291e5b200ac8c7c3b9258460405161078091815260200190565b60405180910390a350505050565b6001600160a01b0383166107b95780600260008282546107ae9190610a72565b9091555061082b9050565b6001600160a01b0383166000908152602081905260409020548181101561080c5760405163391434e360e21b81526001600160a01b0385166004820152602481018290526044810183905260640161037f565b6001600160a01b03841660009081526020819052604090209082900390555b6001600160a01b03821661084757600280548290039055610866565b6001600160a01b03821660009081526020819052604090208054820190555b816001600160a01b0316836001600160a01b03167fddf252ad1be2c89b69c2b068fc378daa952ba7f163c4a11628f55a4df523b3ef836040516108ab91815260200190565b60405180910390a3505050565b6000815180845260005b818110156108de576020818501810151868301820152016108c2565b506000602082860101526020601f19601f83011685010191505092915050565b60208152600061091160208301846108b8565b9392505050565b80356001600160a01b038116811461092f57600080fd5b919050565b6000806040838503121561094757600080fd5b61095083610918565b946020939093013593505050565b60008060006060848603121561097357600080fd5b61097c84610918565b925061098a60208501610918565b9150604084013590509250925092565b6000602082840312156109ac57600080fd5b61091182610918565b600080604083850312156109c857600080fd5b6109d183610918565b91506109df60208401610918565b90509250929050565b6000602082840312156109fa57600080fd5b5035919050565b6001600160a01b0385168152608060208201819052600090610a25908301866108b8565b6040830194909452506060015292915050565b600181811c90821680610a4c57607f821691505b602082108103610a6c57634e487b7160e01b600052602260045260246000fd5b50919050565b8082018082111561032357634e487b7160e01b600052601160045260246000fdfea2646970667358221220b2d079105e45a1b5a1997ae7e453ae3f7510c8085984cd2959a770a1743ab3f164736f6c63430008190033","linkReferences":{}},"methodIdentifiers":{"addRewards()":"14d6aed0","allowance(address,address)":"dd62ed3e","approve(address,uint256)":"095ea7b3","balanceOf(address)":"70a08231","burnPoints(address,uint256)":"66c4bbba","creatorAddress()":"e927fc5c","decimals()":"313ce567","name()":"06fdde03","platformAddress()":"dbe55e56","rewardUser(address,uint256)":"e4e103dc","rewards(uint256)":"f301af42","symbol()":"95d89b41","totalSupply()":"18160ddd","transfer(address,uint256)":"a9059cbb","transferFrom(address,address,uint256)":"23b872dd"},"id":6}