{
  "_format": "hh-sol-artifact-1",
  "contractName": "CreatorPoints",
  "sourceName": "contracts/RewardPoints.sol",
  "abi": [
    {
      "inputs": [
        {
          "internalType": "address",
          "name": "_platformAddress",
          "type": "address"
        },
        {
          "internalType": "address",
          "name": "_creatorAddress",
          "type": "address"
        }
      ],
      "stateMutability": "nonpayable",
      "type": "constructor"
    },
    {
      "inputs": [
        {
          "internalType": "address",
          "name": "spender",
          "type": "address"
        },
        {
          "internalType": "uint256",
          "name": "allowance",
          "type": "uint256"
        },
        {
          "internalType": "uint256",
          "name": "needed",
          "type": "uint256"
        }
      ],
      "name": "ERC20InsufficientAllowance",
      "type": "error"
    },
    {
      "inputs": [
        {
          "internalType": "address",
          "name": "sender",
          "type": "address"
        },
        {
          "internalType": "uint256",
          "name": "balance",
          "type": "uint256"
        },
        {
          "internalType": "uint256",
          "name": "needed",
          "type": "uint256"
        }
      ],
      "name": "ERC20InsufficientBalance",
      "type": "error"
    },
    {
      "inputs": [
        {
          "internalType": "address",
          "name": "approver",
          "type": "address"
        }
      ],
      "name": "ERC20InvalidApprover",
      "type": "error"
    },
    {
      "inputs": [
        {
          "internalType": "address",
          "name": "receiver",
          "type": "address"
        }
      ],
      "name": "ERC20InvalidReceiver",
      "type": "error"
    },
    {
      "inputs": [
        {
          "internalType": "address",
          "name": "sender",
          "type": "address"
        }
      ],
      "name": "ERC20InvalidSender",
      "type": "error"
    },
    {
      "inputs": [
        {
          "internalType": "address",
          "name": "spender",
          "type": "address"
        }
      ],
      "name": "ERC20InvalidSpender",
      "type": "error"
    },
    {
      "inputs": [],
      "name": "NotAuthorized",
      "type": "error"
    },
    {
      "anonymous": false,
      "inputs": [
        {
          "indexed": true,
          "internalType": "address",
          "name": "owner",
          "type": "address"
        },
        {
          "indexed": true,
          "internalType": "address",
          "name": "spender",
          "type": "address"
        },
        {
          "indexed": false,
          "internalType": "uint256",
          "name": "value",
          "type": "uint256"
        }
      ],
      "name": "Approval",
      "type": "event"
    },
    {
      "anonymous": false,
      "inputs": [
        {
          "indexed": true,
          "internalType": "address",
          "name": "user",
          "type": "address"
        },
        {
          "indexed": false,
          "internalType": "uint256",
          "name": "rewardId",
          "type": "uint256"
        },
        {
          "indexed": false,
          "internalType": "uint256",
          "name": "amount",
          "type": "uint256"
        }
      ],
      "name": "RewardRedeemed",
      "type": "event"
    },
    {
      "anonymous": false,
      "inputs": [
        {
          "indexed": true,
          "internalType": "address",
          "name": "from",
          "type": "address"
        },
        {
          "indexed": true,
          "internalType": "address",
          "name": "to",
          "type": "address"
        },
        {
          "indexed": false,
          "internalType": "uint256",
          "name": "value",
          "type": "uint256"
        }
      ],
      "name": "Transfer",
      "type": "event"
    },
    {
      "inputs": [
        {
          "internalType": "address",
          "name": "owner",
          "type": "address"
        },
        {
          "internalType": "address",
          "name": "spender",
          "type": "address"
        }
      ],
      "name": "allowance",
      "outputs": [
        {
          "internalType": "uint256",
          "name": "",
          "type": "uint256"
        }
      ],
      "stateMutability": "view",
      "type": "function"
    },
    {
      "inputs": [
        {
          "internalType": "address",
          "name": "spender",
          "type": "address"
        },
        {
          "internalType": "uint256",
          "name": "value",
          "type": "uint256"
        }
      ],
      "name": "approve",
      "outputs": [
        {
          "internalType": "bool",
          "name": "",
          "type": "bool"
        }
      ],
      "stateMutability": "nonpayable",
      "type": "function"
    },
    {
      "inputs": [
        {
          "internalType": "address",
          "name": "account",
          "type": "address"
        }
      ],
      "name": "balanceOf",
      "outputs": [
        {
          "internalType": "uint256",
          "name": "",
          "type": "uint256"
        }
      ],
      "stateMutability": "view",
      "type": "function"
    },
    {
      "inputs": [
        {
          "internalType": "address",
          "name": "user",
          "type": "address"
        },
        {
          "internalType": "uint256",
          "name": "amount",
          "type": "uint256"
        }
      ],
      "name": "burnPoints",
      "outputs": [],
      "stateMutability": "nonpayable",
      "type": "function"
    },
    {
      "inputs": [
        {
          "internalType": "uint256",
          "name": "id",
          "type": "uint256"
        },
        {
          "internalType": "uint256",
          "name": "amount",
          "type": "uint256"
        }
      ],
      "name": "createReward",
      "outputs": [],
      "stateMutability": "nonpayable",
      "type": "function"
    },
    {
      "inputs": [],
      "name": "creatorAddress",
      "outputs": [
        {
          "internalType": "address",
          "name": "",
          "type": "address"
        }
      ],
      "stateMutability": "view",
      "type": "function"
    },
    {
      "inputs": [],
      "name": "decimals",
      "outputs": [
        {
          "internalType": "uint8",
          "name": "",
          "type": "uint8"
        }
      ],
      "stateMutability": "view",
      "type": "function"
    },
    {
      "inputs": [
        {
          "internalType": "uint256",
          "name": "id",
          "type": "uint256"
        }
      ],
      "name": "deleteReward",
      "outputs": [],
      "stateMutability": "nonpayable",
      "type": "function"
    },
    {
      "inputs": [
        {
          "internalType": "uint256",
          "name": "id",
          "type": "uint256"
        }
      ],
      "name": "getReward",
      "outputs": [
        {
          "components": [
            {
              "internalType": "uint256",
              "name": "id",
              "type": "uint256"
            },
            {
              "internalType": "uint256",
              "name": "amount",
              "type": "uint256"
            },
            {
              "internalType": "bool",
              "name": "exists",
              "type": "bool"
            }
          ],
          "internalType": "struct Reward",
          "name": "",
          "type": "tuple"
        }
      ],
      "stateMutability": "view",
      "type": "function"
    },
    {
      "inputs": [],
      "name": "name",
      "outputs": [
        {
          "internalType": "string",
          "name": "",
          "type": "string"
        }
      ],
      "stateMutability": "view",
      "type": "function"
    },
    {
      "inputs": [],
      "name": "platformAddress",
      "outputs": [
        {
          "internalType": "address",
          "name": "",
          "type": "address"
        }
      ],
      "stateMutability": "view",
      "type": "function"
    },
    {
      "inputs": [
        {
          "internalType": "uint256",
          "name": "rewardId",
          "type": "uint256"
        }
      ],
      "name": "redeemReward",
      "outputs": [],
      "stateMutability": "nonpayable",
      "type": "function"
    },
    {
      "inputs": [],
      "name": "rewardCounter",
      "outputs": [
        {
          "internalType": "uint256",
          "name": "",
          "type": "uint256"
        }
      ],
      "stateMutability": "view",
      "type": "function"
    },
    {
      "inputs": [
        {
          "internalType": "address",
          "name": "user",
          "type": "address"
        },
        {
          "internalType": "uint256",
          "name": "amount",
          "type": "uint256"
        }
      ],
      "name": "rewardUser",
      "outputs": [],
      "stateMutability": "nonpayable",
      "type": "function"
    },
    {
      "inputs": [
        {
          "internalType": "uint256",
          "name": "",
          "type": "uint256"
        }
      ],
      "name": "rewards",
      "outputs": [
        {
          "internalType": "uint256",
          "name": "id",
          "type": "uint256"
        },
        {
          "internalType": "uint256",
          "name": "amount",
          "type": "uint256"
        },
        {
          "internalType": "bool",
          "name": "exists",
          "type": "bool"
        }
      ],
      "stateMutability": "view",
      "type": "function"
    },
    {
      "inputs": [],
      "name": "symbol",
      "outputs": [
        {
          "internalType": "string",
          "name": "",
          "type": "string"
        }
      ],
      "stateMutability": "view",
      "type": "function"
    },
    {
      "inputs": [],
      "name": "totalSupply",
      "outputs": [
        {
          "internalType": "uint256",
          "name": "",
          "type": "uint256"
        }
      ],
      "stateMutability": "view",
      "type": "function"
    },
    {
      "inputs": [
        {
          "internalType": "address",
          "name": "to",
          "type": "address"
        },
        {
          "internalType": "uint256",
          "name": "value",
          "type": "uint256"
        }
      ],
      "name": "transfer",
      "outputs": [
        {
          "internalType": "bool",
          "name": "",
          "type": "bool"
        }
      ],
      "stateMutability": "nonpayable",
      "type": "function"
    },
    {
      "inputs": [
        {
          "internalType": "address",
          "name": "from",
          "type": "address"
        },
        {
          "internalType": "address",
          "name": "to",
          "type": "address"
        },
        {
          "internalType": "uint256",
          "name": "value",
          "type": "uint256"
        }
      ],
      "name": "transferFrom",
      "outputs": [
        {
          "internalType": "bool",
          "name": "",
          "type": "bool"
        }
      ],
      "stateMutability": "nonpayable",
      "type": "function"
    },
    {
      "inputs": [
        {
          "internalType": "uint256",
          "name": "id",
          "type": "uint256"
        },
        {
          "internalType": "uint256",
          "name": "amount",
          "type": "uint256"
        }
      ],
      "name": "updateReward",
      "outputs": [],
      "stateMutability": "nonpayable",
      "type": "function"
    }
  ],
  "bytecode": "0x60806040523461037b576110bd6040813803918261001c81610380565b93849283398101031261037b5761003e6020610037836103a5565b92016103a5565b906100496040610380565b91600d83526c43726561746f72506f696e747360981b602084015261006e6040610380565b600381526210d41560ea1b602082015283519092906001600160401b03811161028457600354600181811c91168015610371575b602082101461026457601f811161030c575b50602094601f82116001146102a55794819293949560009261029a575b50508160011b916000199060031b1c1916176003555b82516001600160401b03811161028457600454600181811c9116801561027a575b602082101461026457601f81116101ff575b506020601f8211600114610198578192939460009261018d575b50508160011b916000199060031b1c1916176004555b600580546001600160a01b039283166001600160a01b031991821617909155600680549390921692169190911790556000600755604051610d0390816103ba8239f35b015190503880610134565b601f198216906004600052806000209160005b8181106101e7575095836001959697106101ce575b505050811b0160045561014a565b015160001960f88460031b161c191690553880806101c0565b9192602060018192868b0151815501940192016101ab565b60046000527f8a35acfbc15ff81a39ae7d344fd709f28e8600b4aa8c65c6b64bfe7fe36bd19b601f830160051c8101916020841061025a575b601f0160051c01905b81811061024e575061011a565b60008155600101610241565b9091508190610238565b634e487b7160e01b600052602260045260246000fd5b90607f1690610108565b634e487b7160e01b600052604160045260246000fd5b0151905038806100d1565b601f198216956003600052806000209160005b8881106102f4575083600195969798106102db575b505050811b016003556100e7565b015160001960f88460031b161c191690553880806102cd565b919260206001819286850151815501940192016102b8565b60036000527fc2575a0e9e593c00f959f8c92f12db2869c3395a3b0502d05e2516446f71f85b601f830160051c81019160208410610367575b601f0160051c01905b81811061035b57506100b4565b6000815560010161034e565b9091508190610345565b90607f16906100a2565b600080fd5b6040519190601f01601f191682016001600160401b0381118382101761028457604052565b51906001600160a01b038216820361037b5756fe608080604052600436101561001357600080fd5b60003560e01c90816306fdde031461094957508063095ea7b3146108c35780630b50cd3e1461086457806318160ddd146108465780631c4b774b146107ba57806323b872dd146106cd578063313ce567146106b15780634c6423e11461069357806351a71b171461057b57806366c4bbba1461052757806370a08231146104ed5780637dbedad51461040857806395d89b4114610301578063a9059cbb146102d0578063dbe55e56146102a7578063dd62ed3e14610256578063e4e103dc14610200578063e7cf1ab714610171578063e927fc5c146101485763f301af42146100fb57600080fd5b346101435760203660031901126101435760043560005260086020526060604060002080549060ff600260018301549201541690604051928352602083015215156040820152f35b600080fd5b34610143576000366003190112610143576006546040516001600160a01b039091168152602090f35b346101435760203660031901126101435760043560018060a01b0360055416331480156101ec575b156101db578060005260086020526101bb60ff60026040600020015416610ae3565b600052600860205260006002604082208281558260018201550155600080f35b63ea8e4eb560e01b60005260046000fd5b506006546001600160a01b03163314610199565b3461014357604036600319011261014357610219610a4d565b6005546001600160a01b031633148015610242575b156101db576102409060243590610c4a565b005b506006546001600160a01b0316331461022e565b346101435760403660031901126101435761026f610a4d565b610277610a63565b6001600160a01b039182166000908152600160209081526040808320949093168252928352819020549051908152f35b34610143576000366003190112610143576005546040516001600160a01b039091168152602090f35b34610143576040366003190112610143576102f66102ec610a4d565b6024359033610b28565b602060405160018152f35b346101435760003660031901126101435760405160006004548060011c906001811680156103fe575b6020831081146103ea578285529081156103c65750600114610367575b6103638361035781850382610ac1565b60405191829182610a04565b0390f35b600460009081527f8a35acfbc15ff81a39ae7d344fd709f28e8600b4aa8c65c6b64bfe7fe36bd19b939250905b8082106103ac57509091508101602001610357610347565b919260018160209254838588010152019101909291610394565b60ff191660208086019190915291151560051b840190910191506103579050610347565b634e487b7160e01b84526022600452602484fd5b91607f169161032a565b346101435761041636610a79565b6005546001600160a01b0316331480156104d9575b156101db5781600052600860205260ff600260406000200154166104985760405160029161045882610a8f565b838252602082019081526040820193600185526000526008602052604060002091518255516001820155019051151560ff80198354169116179055600080f35b60405162461bcd60e51b81526020600482015260196024820152782932bbb0b9321024a21030b63932b0b23c9032bc34b9ba399760391b6044820152606490fd5b506006546001600160a01b0316331461042b565b34610143576020366003190112610143576001600160a01b0361050e610a4d565b1660005260006020526020604060002054604051908152f35b3461014357604036600319011261014357610540610a4d565b6005546001600160a01b031633148015610567575b156101db576102409060243590610bdb565b506006546001600160a01b03163314610555565b346101435760203660031901126101435760043580600052600860205260406000206105d1604080516105ad81610a8f565b8354815260ff60026001860154956020840196875201541615159182910152610ae3565b33600052600060205260406000205481511161063d576105f2815133610bdb565b6006548151610609916001600160a01b0316610c4a565b5160405191825260208201527fc37465ff193f774057dca6e5213393c0be6539811e14d27361449666b618ecff60403392a2005b60405162461bcd60e51b815260206004820152602860248201527f4e6f7420656e6f75676820746f6b656e7320746f2072656465656d2074686973604482015267103932bbb0b9321760c11b6064820152608490fd5b34610143576000366003190112610143576020600754604051908152f35b3461014357600036600319011261014357602060405160128152f35b34610143576060366003190112610143576106e6610a4d565b6106ee610a63565b6001600160a01b038216600081815260016020818152604080842033855290915290912054919360443593929091810161072e575b506102f69350610b28565b83811061079d578415610787573315610771576102f6946000526001602052604060002060018060a01b0333166000526020528360406000209103905584610723565b634a1406b160e11b600052600060045260246000fd5b63e602df0560e01b600052600060045260246000fd5b8390637dc7a0d960e11b6000523360045260245260445260646000fd5b34610143576020366003190112610143576000604080516107da81610a8f565b82815282602082015201526004356000526008602052606060406000206040519061080482610a8f565b8054825260ff6002600183015492602085019384520154169061082f60408401921515808452610ae3565b604051925183525160208301525115156040820152f35b34610143576000366003190112610143576020600254604051908152f35b346101435761087236610a79565b9060018060a01b0360055416331480156108af575b156101db576000526008602052600160406000206108ab60ff600283015416610ae3565b0155005b506006546001600160a01b03163314610887565b34610143576040366003190112610143576108dc610a4d565b602435903315610787576001600160a01b031690811561077157336000526001602052604060002082600052602052806040600020556040519081527f8c5be1e5ebec7d5bd14f71427d1e84f3dd0314c0f7b2291e5b200ac8c7c3b92560203392a3602060405160018152f35b346101435760003660031901126101435760006003548060011c906001811680156109fa575b6020831081146103ea578285529081156103c6575060011461099b576103638361035781850382610ac1565b600360009081527fc2575a0e9e593c00f959f8c92f12db2869c3395a3b0502d05e2516446f71f85b939250905b8082106109e057509091508101602001610357610347565b9192600181602092548385880101520191019092916109c8565b91607f169161096f565b91909160208152825180602083015260005b818110610a37575060409293506000838284010152601f8019910116010190565b8060208092870101516040828601015201610a16565b600435906001600160a01b038216820361014357565b602435906001600160a01b038216820361014357565b6040906003190112610143576004359060243590565b6060810190811067ffffffffffffffff821117610aab57604052565b634e487b7160e01b600052604160045260246000fd5b90601f8019910116810190811067ffffffffffffffff821117610aab57604052565b15610aea57565b60405162461bcd60e51b81526020600482015260166024820152752932bbb0b932103237b2b9903737ba1032bc34b9ba1760511b6044820152606490fd5b6001600160a01b0316908115610bc5576001600160a01b0316918215610baf576000828152806020526040812054828110610b95579160408282600080516020610cae833981519152958760209652828652038282205586815280845220818154019055604051908152a3565b916064928463391434e360e21b8452600452602452604452fd5b63ec442f0560e01b600052600060045260246000fd5b634b637e8f60e11b600052600060045260246000fd5b6001600160a01b03168015610bc557600091818352826020526040832054818110610c315781600080516020610cae833981519152926020928587528684520360408620558060025403600255604051908152a3565b6064939263391434e360e21b8452600452602452604452fd5b6001600160a01b0316908115610baf57600254818101809111610c9757600255600080516020610cae833981519152602060009284845283825260408420818154019055604051908152a3565b634e487b7160e01b600052601160045260246000fdfeddf252ad1be2c89b69c2b068fc378daa952ba7f163c4a11628f55a4df523b3efa2646970667358221220c3bf4c67473c141f06377132789c36c2864ba1bec4d030dc831cc5dcde4b39c764736f6c634300081b0033",
  "linkReferences": {},
  "deployedLinkReferences": {}
}