{
  "_format": "hh-sol-artifact-1",
  "contractName": "CreatorPoints",
  "sourceName": "contracts/RewardPoints.sol",
  "abi": [
    {
      "inputs": [
        {
          "internalType": "address",
          "name": "_platformAddress",
          "type": "address"
        },
        {
          "internalType": "address",
          "name": "_creatorAddress",
          "type": "address"
        }
      ],
      "stateMutability": "nonpayable",
      "type": "constructor"
    },
    {
      "inputs": [
        {
          "internalType": "address",
          "name": "spender",
          "type": "address"
        },
        {
          "internalType": "uint256",
          "name": "allowance",
          "type": "uint256"
        },
        {
          "internalType": "uint256",
          "name": "needed",
          "type": "uint256"
        }
      ],
      "name": "ERC20InsufficientAllowance",
      "type": "error"
    },
    {
      "inputs": [
        {
          "internalType": "address",
          "name": "sender",
          "type": "address"
        },
        {
          "internalType": "uint256",
          "name": "balance",
          "type": "uint256"
        },
        {
          "internalType": "uint256",
          "name": "needed",
          "type": "uint256"
        }
      ],
      "name": "ERC20InsufficientBalance",
      "type": "error"
    },
    {
      "inputs": [
        {
          "internalType": "address",
          "name": "approver",
          "type": "address"
        }
      ],
      "name": "ERC20InvalidApprover",
      "type": "error"
    },
    {
      "inputs": [
        {
          "internalType": "address",
          "name": "receiver",
          "type": "address"
        }
      ],
      "name": "ERC20InvalidReceiver",
      "type": "error"
    },
    {
      "inputs": [
        {
          "internalType": "address",
          "name": "sender",
          "type": "address"
        }
      ],
      "name": "ERC20InvalidSender",
      "type": "error"
    },
    {
      "inputs": [
        {
          "internalType": "address",
          "name": "spender",
          "type": "address"
        }
      ],
      "name": "ERC20InvalidSpender",
      "type": "error"
    },
    {
      "inputs": [],
      "name": "NotAuthorized",
      "type": "error"
    },
    {
      "anonymous": false,
      "inputs": [
        {
          "indexed": true,
          "internalType": "address",
          "name": "owner",
          "type": "address"
        },
        {
          "indexed": true,
          "internalType": "address",
          "name": "spender",
          "type": "address"
        },
        {
          "indexed": false,
          "internalType": "uint256",
          "name": "value",
          "type": "uint256"
        }
      ],
      "name": "Approval",
      "type": "event"
    },
    {
      "anonymous": false,
      "inputs": [
        {
          "indexed": true,
          "internalType": "address",
          "name": "from",
          "type": "address"
        },
        {
          "indexed": true,
          "internalType": "address",
          "name": "to",
          "type": "address"
        },
        {
          "indexed": false,
          "internalType": "uint256",
          "name": "value",
          "type": "uint256"
        }
      ],
      "name": "Transfer",
      "type": "event"
    },
    {
      "inputs": [
        {
          "internalType": "address",
          "name": "owner",
          "type": "address"
        },
        {
          "internalType": "address",
          "name": "spender",
          "type": "address"
        }
      ],
      "name": "allowance",
      "outputs": [
        {
          "internalType": "uint256",
          "name": "",
          "type": "uint256"
        }
      ],
      "stateMutability": "view",
      "type": "function"
    },
    {
      "inputs": [
        {
          "internalType": "address",
          "name": "spender",
          "type": "address"
        },
        {
          "internalType": "uint256",
          "name": "value",
          "type": "uint256"
        }
      ],
      "name": "approve",
      "outputs": [
        {
          "internalType": "bool",
          "name": "",
          "type": "bool"
        }
      ],
      "stateMutability": "nonpayable",
      "type": "function"
    },
    {
      "inputs": [
        {
          "internalType": "address",
          "name": "account",
          "type": "address"
        }
      ],
      "name": "balanceOf",
      "outputs": [
        {
          "internalType": "uint256",
          "name": "",
          "type": "uint256"
        }
      ],
      "stateMutability": "view",
      "type": "function"
    },
    {
      "inputs": [
        {
          "internalType": "address",
          "name": "user",
          "type": "address"
        },
        {
          "internalType": "uint256",
          "name": "amount",
          "type": "uint256"
        }
      ],
      "name": "burnPoints",
      "outputs": [],
      "stateMutability": "nonpayable",
      "type": "function"
    },
    {
      "inputs": [],
      "name": "creatorAddress",
      "outputs": [
        {
          "internalType": "address",
          "name": "",
          "type": "address"
        }
      ],
      "stateMutability": "view",
      "type": "function"
    },
    {
      "inputs": [],
      "name": "decimals",
      "outputs": [
        {
          "internalType": "uint8",
          "name": "",
          "type": "uint8"
        }
      ],
      "stateMutability": "view",
      "type": "function"
    },
    {
      "inputs": [],
      "name": "name",
      "outputs": [
        {
          "internalType": "string",
          "name": "",
          "type": "string"
        }
      ],
      "stateMutability": "view",
      "type": "function"
    },
    {
      "inputs": [],
      "name": "platformAddress",
      "outputs": [
        {
          "internalType": "address",
          "name": "",
          "type": "address"
        }
      ],
      "stateMutability": "view",
      "type": "function"
    },
    {
      "inputs": [
        {
          "internalType": "address",
          "name": "user",
          "type": "address"
        },
        {
          "internalType": "uint256",
          "name": "amount",
          "type": "uint256"
        }
      ],
      "name": "rewardUser",
      "outputs": [],
      "stateMutability": "nonpayable",
      "type": "function"
    },
    {
      "inputs": [],
      "name": "symbol",
      "outputs": [
        {
          "internalType": "string",
          "name": "",
          "type": "string"
        }
      ],
      "stateMutability": "view",
      "type": "function"
    },
    {
      "inputs": [],
      "name": "totalSupply",
      "outputs": [
        {
          "internalType": "uint256",
          "name": "",
          "type": "uint256"
        }
      ],
      "stateMutability": "view",
      "type": "function"
    },
    {
      "inputs": [
        {
          "internalType": "address",
          "name": "to",
          "type": "address"
        },
        {
          "internalType": "uint256",
          "name": "value",
          "type": "uint256"
        }
      ],
      "name": "transfer",
      "outputs": [
        {
          "internalType": "bool",
          "name": "",
          "type": "bool"
        }
      ],
      "stateMutability": "nonpayable",
      "type": "function"
    },
    {
      "inputs": [
        {
          "internalType": "address",
          "name": "from",
          "type": "address"
        },
        {
          "internalType": "address",
          "name": "to",
          "type": "address"
        },
        {
          "internalType": "uint256",
          "name": "value",
          "type": "uint256"
        }
      ],
      "name": "transferFrom",
      "outputs": [
        {
          "internalType": "bool",
          "name": "",
          "type": "bool"
        }
      ],
      "stateMutability": "nonpayable",
      "type": "function"
    }
  ],
  "bytecode": "0x60806040523461037657610c136040813803918261001c8161037b565b9384928339810103126103765761003e6020610037836103a0565b92016103a0565b90610049604061037b565b91600d83526c43726561746f72506f696e747360981b602084015261006e604061037b565b600381526210d41560ea1b602082015283519092906001600160401b03811161027f57600354600181811c9116801561036c575b602082101461025f57601f8111610307575b50602094601f82116001146102a057948192939495600092610295575b50508160011b916000199060031b1c1916176003555b82516001600160401b03811161027f57600454600181811c91168015610275575b602082101461025f57601f81116101fa575b506020601f82116001146101935781929394600092610188575b50508160011b916000199060031b1c1916176004555b600580546001600160a01b039283166001600160a01b0319918216179091556006805493909216921691909117905560405161085e90816103b58239f35b015190503880610134565b601f198216906004600052806000209160005b8181106101e2575095836001959697106101c9575b505050811b0160045561014a565b015160001960f88460031b161c191690553880806101bb565b9192602060018192868b0151815501940192016101a6565b60046000527f8a35acfbc15ff81a39ae7d344fd709f28e8600b4aa8c65c6b64bfe7fe36bd19b601f830160051c81019160208410610255575b601f0160051c01905b818110610249575061011a565b6000815560010161023c565b9091508190610233565b634e487b7160e01b600052602260045260246000fd5b90607f1690610108565b634e487b7160e01b600052604160045260246000fd5b0151905038806100d1565b601f198216956003600052806000209160005b8881106102ef575083600195969798106102d6575b505050811b016003556100e7565b015160001960f88460031b161c191690553880806102c8565b919260206001819286850151815501940192016102b3565b60036000527fc2575a0e9e593c00f959f8c92f12db2869c3395a3b0502d05e2516446f71f85b601f830160051c81019160208410610362575b601f0160051c01905b81811061035657506100b4565b60008155600101610349565b9091508190610340565b90607f16906100a2565b600080fd5b6040519190601f01601f191682016001600160401b0381118382101761027f57604052565b51906001600160a01b03821682036103765756fe608080604052600436101561001357600080fd5b60003560e01c90816306fdde031461063957508063095ea7b3146105b357806318160ddd1461059557806323b872dd146104a8578063313ce5671461048c57806366c4bbba146103ba57806370a082311461038057806395d89b411461025f578063a9059cbb1461022e578063dbe55e5614610205578063dd62ed3e146101b4578063e4e103dc146100dc5763e927fc5c146100ae57600080fd5b346100d75760003660031901126100d7576006546040516001600160a01b039091168152602090f35b600080fd5b346100d75760403660031901126100d7576100f5610755565b6024359060018060a01b0360055416331480156101a0575b1561018f576001600160a01b03168015610179576002549180830180931161016357602092600255600080516020610809833981519152600093849284845283825260408420818154019055604051908152a380f35b634e487b7160e01b600052601160045260246000fd5b63ec442f0560e01b600052600060045260246000fd5b63ea8e4eb560e01b60005260046000fd5b506006546001600160a01b0316331461010d565b346100d75760403660031901126100d7576101cd610755565b6101d561076b565b6001600160a01b039182166000908152600160209081526040808320949093168252928352819020549051908152f35b346100d75760003660031901126100d7576005546040516001600160a01b039091168152602090f35b346100d75760403660031901126100d75761025461024a610755565b6024359033610781565b602060405160018152f35b346100d75760003660031901126100d75760405160006004548060011c90600181168015610376575b6020831081146103625782855290811561034657506001146102ef575b50819003601f01601f191681019067ffffffffffffffff8211818310176102d9576102d58291826040528261070c565b0390f35b634e487b7160e01b600052604160045260246000fd5b600460009081529091507f8a35acfbc15ff81a39ae7d344fd709f28e8600b4aa8c65c6b64bfe7fe36bd19b5b828210610330575060209150820101826102a5565b600181602092548385880101520191019061031b565b90506020925060ff191682840152151560051b820101826102a5565b634e487b7160e01b84526022600452602484fd5b91607f1691610288565b346100d75760203660031901126100d7576001600160a01b036103a1610755565b1660005260006020526020604060002054604051908152f35b346100d75760403660031901126100d7576103d3610755565b6024359060018060a01b036005541633148015610478575b1561018f576001600160a01b03169081156104625760009082825281602052604082205481811061044a57602082859360008051602061080983398151915293869787528684520360408620558060025403600255604051908152a380f35b60649363391434e360e21b8452600452602452604452fd5b634b637e8f60e11b600052600060045260246000fd5b506006546001600160a01b031633146103eb565b346100d75760003660031901126100d757602060405160128152f35b346100d75760603660031901126100d7576104c1610755565b6104c961076b565b6001600160a01b0382166000818152600160208181526040808420338552909152909120549193604435939290918101610509575b506102549350610781565b83811061057857841561056257331561054c57610254946000526001602052604060002060018060a01b03331660005260205283604060002091039055846104fe565b634a1406b160e11b600052600060045260246000fd5b63e602df0560e01b600052600060045260246000fd5b8390637dc7a0d960e11b6000523360045260245260445260646000fd5b346100d75760003660031901126100d7576020600254604051908152f35b346100d75760403660031901126100d7576105cc610755565b602435903315610562576001600160a01b031690811561054c57336000526001602052604060002082600052602052806040600020556040519081527f8c5be1e5ebec7d5bd14f71427d1e84f3dd0314c0f7b2291e5b200ac8c7c3b92560203392a3602060405160018152f35b346100d75760003660031901126100d75760006003548060011c90600181168015610702575b6020831081146103625782855290811561034657506001146106ab5750819003601f01601f191681019067ffffffffffffffff8211818310176102d9576102d58291826040528261070c565b600360009081529091507fc2575a0e9e593c00f959f8c92f12db2869c3395a3b0502d05e2516446f71f85b5b8282106106ec575060209150820101826102a5565b60018160209254838588010152019101906106d7565b91607f169161065f565b91909160208152825180602083015260005b81811061073f575060409293506000838284010152601f8019910116010190565b806020809287010151604082860101520161071e565b600435906001600160a01b03821682036100d757565b602435906001600160a01b03821682036100d757565b6001600160a01b0316908115610462576001600160a01b03169182156101795760008281528060205260408120548281106107ee579160408282600080516020610809833981519152958760209652828652038282205586815280845220818154019055604051908152a3565b916064928463391434e360e21b8452600452602452604452fdfeddf252ad1be2c89b69c2b068fc378daa952ba7f163c4a11628f55a4df523b3efa26469706673582212208321d7da07f757767941c742ce76d06ea1734c81f0d39f6a7e6209fe540ef02164736f6c634300081b0033",
  "linkReferences": {},
  "deployedLinkReferences": {}
}