{
  "_format": "hh-sol-artifact-1",
  "contractName": "SubscriptionLogic",
  "sourceName": "contracts/Subscription.sol",
  "abi": [
    {
      "inputs": [
        {
          "internalType": "contract IERC20",
          "name": "_platformToken",
          "type": "address"
        },
        {
          "internalType": "address",
          "name": "_platformAddress",
          "type": "address"
        },
        {
          "internalType": "uint256",
          "name": "_platformFee",
          "type": "uint256"
        },
        {
          "internalType": "uint256",
          "name": "tier1Price",
          "type": "uint256"
        },
        {
          "internalType": "uint256",
          "name": "tier2Price",
          "type": "uint256"
        },
        {
          "internalType": "uint256",
          "name": "tier3Price",
          "type": "uint256"
        }
      ],
      "stateMutability": "nonpayable",
      "type": "constructor"
    },
    {
      "inputs": [],
      "name": "InvalidTier",
      "type": "error"
    },
    {
      "inputs": [],
      "name": "NotACreator",
      "type": "error"
    },
    {
      "inputs": [],
      "name": "PaymentNotDue",
      "type": "error"
    },
    {
      "inputs": [],
      "name": "SubscriptionNotActive",
      "type": "error"
    },
    {
      "anonymous": false,
      "inputs": [
        {
          "indexed": true,
          "internalType": "address",
          "name": "creator",
          "type": "address"
        }
      ],
      "name": "CreatorAdded",
      "type": "event"
    },
    {
      "anonymous": false,
      "inputs": [
        {
          "indexed": true,
          "internalType": "address",
          "name": "creator",
          "type": "address"
        },
        {
          "indexed": false,
          "internalType": "uint256",
          "name": "amount",
          "type": "uint256"
        }
      ],
      "name": "FeesWithdrawn",
      "type": "event"
    },
    {
      "anonymous": false,
      "inputs": [
        {
          "indexed": true,
          "internalType": "address",
          "name": "user",
          "type": "address"
        },
        {
          "indexed": true,
          "internalType": "enum Tier",
          "name": "tier",
          "type": "uint8"
        },
        {
          "indexed": false,
          "internalType": "uint256",
          "name": "amount",
          "type": "uint256"
        }
      ],
      "name": "Renewed",
      "type": "event"
    },
    {
      "anonymous": false,
      "inputs": [
        {
          "indexed": true,
          "internalType": "address",
          "name": "user",
          "type": "address"
        },
        {
          "indexed": true,
          "internalType": "enum Tier",
          "name": "tier",
          "type": "uint8"
        },
        {
          "indexed": false,
          "internalType": "uint256",
          "name": "amount",
          "type": "uint256"
        }
      ],
      "name": "Subscribed",
      "type": "event"
    },
    {
      "anonymous": false,
      "inputs": [
        {
          "indexed": true,
          "internalType": "address",
          "name": "user",
          "type": "address"
        }
      ],
      "name": "SubscriptionExpired",
      "type": "event"
    },
    {
      "inputs": [],
      "name": "ONE_MONTH",
      "outputs": [
        {
          "internalType": "uint256",
          "name": "",
          "type": "uint256"
        }
      ],
      "stateMutability": "view",
      "type": "function"
    },
    {
      "inputs": [
        {
          "internalType": "address",
          "name": "creator",
          "type": "address"
        }
      ],
      "name": "addCreator",
      "outputs": [],
      "stateMutability": "nonpayable",
      "type": "function"
    },
    {
      "inputs": [
        {
          "internalType": "address",
          "name": "_creator",
          "type": "address"
        }
      ],
      "name": "addressIsCreator",
      "outputs": [
        {
          "internalType": "bool",
          "name": "",
          "type": "bool"
        }
      ],
      "stateMutability": "view",
      "type": "function"
    },
    {
      "inputs": [],
      "name": "cancelSubscription",
      "outputs": [],
      "stateMutability": "nonpayable",
      "type": "function"
    },
    {
      "inputs": [
        {
          "internalType": "address",
          "name": "user",
          "type": "address"
        }
      ],
      "name": "checkSubscriptionStatus",
      "outputs": [
        {
          "internalType": "bool",
          "name": "",
          "type": "bool"
        }
      ],
      "stateMutability": "view",
      "type": "function"
    },
    {
      "inputs": [
        {
          "internalType": "address",
          "name": "",
          "type": "address"
        }
      ],
      "name": "creatorBalances",
      "outputs": [
        {
          "internalType": "uint256",
          "name": "",
          "type": "uint256"
        }
      ],
      "stateMutability": "view",
      "type": "function"
    },
    {
      "inputs": [
        {
          "internalType": "address",
          "name": "",
          "type": "address"
        }
      ],
      "name": "creators",
      "outputs": [
        {
          "internalType": "bool",
          "name": "",
          "type": "bool"
        }
      ],
      "stateMutability": "view",
      "type": "function"
    },
    {
      "inputs": [],
      "name": "getPlatformAddress",
      "outputs": [
        {
          "internalType": "address",
          "name": "",
          "type": "address"
        }
      ],
      "stateMutability": "view",
      "type": "function"
    },
    {
      "inputs": [],
      "name": "platformAddress",
      "outputs": [
        {
          "internalType": "address",
          "name": "",
          "type": "address"
        }
      ],
      "stateMutability": "view",
      "type": "function"
    },
    {
      "inputs": [],
      "name": "platformFee",
      "outputs": [
        {
          "internalType": "uint256",
          "name": "",
          "type": "uint256"
        }
      ],
      "stateMutability": "view",
      "type": "function"
    },
    {
      "inputs": [],
      "name": "platformToken",
      "outputs": [
        {
          "internalType": "contract IERC20",
          "name": "",
          "type": "address"
        }
      ],
      "stateMutability": "view",
      "type": "function"
    },
    {
      "inputs": [],
      "name": "renewSubscription",
      "outputs": [],
      "stateMutability": "nonpayable",
      "type": "function"
    },
    {
      "inputs": [
        {
          "internalType": "uint256",
          "name": "newFee",
          "type": "uint256"
        }
      ],
      "name": "setPlatformFee",
      "outputs": [],
      "stateMutability": "nonpayable",
      "type": "function"
    },
    {
      "inputs": [
        {
          "internalType": "enum Tier",
          "name": "_tier",
          "type": "uint8"
        },
        {
          "internalType": "uint256",
          "name": "newPrice",
          "type": "uint256"
        }
      ],
      "name": "setTierPrice",
      "outputs": [],
      "stateMutability": "nonpayable",
      "type": "function"
    },
    {
      "inputs": [
        {
          "internalType": "enum Tier",
          "name": "_tier",
          "type": "uint8"
        }
      ],
      "name": "subscribe",
      "outputs": [],
      "stateMutability": "nonpayable",
      "type": "function"
    },
    {
      "inputs": [
        {
          "internalType": "address",
          "name": "",
          "type": "address"
        }
      ],
      "name": "subscriptions",
      "outputs": [
        {
          "internalType": "enum Tier",
          "name": "tier",
          "type": "uint8"
        },
        {
          "internalType": "bool",
          "name": "isActive",
          "type": "bool"
        },
        {
          "internalType": "uint256",
          "name": "nextPaymentDue",
          "type": "uint256"
        },
        {
          "internalType": "uint256",
          "name": "lastPaymentAmount",
          "type": "uint256"
        }
      ],
      "stateMutability": "view",
      "type": "function"
    },
    {
      "inputs": [
        {
          "internalType": "enum Tier",
          "name": "",
          "type": "uint8"
        }
      ],
      "name": "tierPrices",
      "outputs": [
        {
          "internalType": "uint256",
          "name": "",
          "type": "uint256"
        }
      ],
      "stateMutability": "view",
      "type": "function"
    },
    {
      "inputs": [],
      "name": "withdrawFees",
      "outputs": [],
      "stateMutability": "nonpayable",
      "type": "function"
    }
  ],
  "bytecode": "0x60803461012857601f610aa138819003918201601f19168301916001600160401b0383118484101761012d5780849260c0946040528339810103126101285780516001600160a01b03811691908290036101285760208101516001600160a01b03811690819003610128576040828101516060840151608085015160a090950151600080546001600160a01b0319908116909817815560018054909816909517909655600291825560056020527f05b8ccbb9d4d8fb16ea74ce3c29a41f1b461fbdaff4714a0d9a8eb05499746bc557f1471eb6eb2c5e789fc3de43f8ce62938c7d1836ec861730447e2ada8fd81017b939093559190527f89832631fb3c3307a103ba2c84ab569c64d6182a18893dcd163f0f1c2090733a919091555161095d90816101448239f35b600080fd5b634e487b7160e01b600052604160045260246000fdfe608080604052600436101561001357600080fd5b60003560e01c90816312e8e2c31461076157816320988cef146107455750806324e9edb0146106db57806326232a2e146106bd5780632781b0eb146106845780632a782802146106465780633b9dce051461059b5780633c0c4566146101b5578063476343ee1461046057806349c7e6391461033a5780634a5c6f8c1461030e5780636e30798114610238578063933166e114610172578063b4fad6f814610207578063d1b812cd146101de578063dbe55e56146101b5578063dc04b9d5146101725763f046395a146100e557600080fd5b3461016d57602036600319011261016d576004356001600160a01b0381169081900361016d576000526004602052604060002080549060ff82169060026001820154910154906040519260048110156101575760809460ff91855260081c161515602084015260408301526060820152f35b634e487b7160e01b600052602160045260246000fd5b600080fd5b3461016d57602036600319011261016d576004356001600160a01b0381169081900361016d576000526003602052602060ff604060002054166040519015158152f35b3461016d57600036600319011261016d576001546040516001600160a01b039091168152602090f35b3461016d57600036600319011261016d576000546040516001600160a01b039091168152602090f35b3461016d57602036600319011261016d57600435600481101561016d5761022f60209161077a565b54604051908152f35b3461016d57600036600319011261016d5733600052600460205260ff60406000205460081c16156102fd57336000526004602052604060002060018101805442106102ed5760028201549161028c8361087f565b62278d0042018042116102d75760ff92555416906004821015610157576040519081527f0db0cdee0835894cd85c3775c88c5f58768a508801b3344e5b16b2e95ebf082360203392a3005b634e487b7160e01b600052601160045260246000fd5b62a71fbb60e01b60005260046000fd5b6377dba77f60e11b60005260046000fd5b3461016d57604036600319011261016d57600435600481101561016d576103376024359161077a565b55005b3461016d57602036600319011261016d57600435600481101561016d576000600360ff831610156104515761036e8261077a565b54906103798261087f565b62278d00420180421161043d57604051906103938261079f565b61039d8583610793565b60208201906001825260408301908152606083019185835233855260046020526040852093516004811015610429578454915161ffff1990921660ff9091161790151560081b61ff001617835551600183015551600291909101555060405190815233907f044f95a2d17727b5b87e4f23d70278b59a2b0b285289cc9021cac8cdba4797b790602090a3005b634e487b7160e01b86526021600452602486fd5b634e487b7160e01b82526011600452602482fd5b63e142361760e01b8152600490fd5b3461016d57600036600319011261016d5733600052600360205260ff604060002054161561058a57336000526006602052604060002054801561054f57336000526006602052600060408120556000602060018060a01b0382541660446040518094819363a9059cbb60e01b83523360048401528760248401525af1801561054357610516575b506040519081527fc0819c13be868895eb93e40eaceb96de976442fa1d404e5c55f14bb65a8c489a60203392a2005b6105379060203d60201161053c575b61052f81836107d1565b810190610867565b6104e7565b503d610525565b6040513d6000823e3d90fd5b60405162461bcd60e51b81526020600482015260136024820152724e6f206665657320746f20776974686472617760681b6044820152606490fd5b6321cc293d60e21b60005260046000fd5b3461016d57602036600319011261016d576004356001600160a01b0381169081900361016d578015610607578060005260036020526040600020600160ff198254161790557f021a687fbe334e9e815cee8b399c0bc42e82356eb7f63a09ddb558a25d3dcdbd600080a2005b60405162461bcd60e51b8152602060048201526017602482015276496e76616c69642063726561746f72206164647265737360481b6044820152606490fd5b3461016d57602036600319011261016d576004356001600160a01b0381169081900361016d5760005260066020526020604060002054604051908152f35b3461016d57602036600319011261016d576004356001600160a01b038116810361016d576106b36020916107f3565b6040519015158152f35b3461016d57600036600319011261016d576020600254604051908152f35b3461016d57600036600319011261016d5733600052600460205260ff60406000205460081c16156102fd57336000526004602052604060002061ff00198154169055337fce494df26201e4ab47fcf20b8e9c68090020433b94bca8e2768f3a6a2099f753600080a2005b3461016d57600036600319011261016d578062278d0060209252f35b3461016d57602036600319011261016d57600435600255005b6004811015610157576000526005602052604060002090565b60048210156101575752565b6080810190811067ffffffffffffffff8211176107bb57604052565b634e487b7160e01b600052604160045260246000fd5b90601f8019910116810190811067ffffffffffffffff8211176107bb57604052565b60018060a01b031660005260046020526040600020604051906108158261079f565b60ff815461082582821685610793565b60081c16158015928360208201526060600260018501549485604085015201549101529161085d575b5061085857600190565b600090565b905042113861084e565b9081602091031261016d5751801515810361016d5790565b6002548082029082820414821517156102d75761271090048082039182116102d757600080546001546040516323b872dd60e01b81523360048201526001600160a01b03918216602482015260448101949094526020928492606492849291165af180156105435761090a575b50336000526006602052604060002080549182018092116102d75755565b6109229060203d60201161053c5761052f81836107d1565b6108ec56fea264697066735822122080085b942f9d205e3e99d1fb8a51396be937ac441055398994a719621686ecff64736f6c634300081b0033",
  "linkReferences": {},
  "deployedLinkReferences": {}
}